{
    "_format": "hh-sol-artifact-1",
    "contractName": "Biggytoken",
    "sourceName": "contracts/Biggytoken.sol",
    "abi": [
        {
            "inputs": [],
            "stateMutability": "nonpayable",
            "type": "constructor"
        },
        {
            "anonymous": false,
            "inputs": [
                {
                    "indexed": true,
                    "internalType": "address",
                    "name": "owner",
                    "type": "address"
                },
                {
                    "indexed": true,
                    "internalType": "address",
                    "name": "spender",
                    "type": "address"
                },
                {
                    "indexed": false,
                    "internalType": "uint256",
                    "name": "value",
                    "type": "uint256"
                }
            ],
            "name": "Approval",
            "type": "event"
        },
        {
            "anonymous": false,
            "inputs": [
                {
                    "indexed": true,
                    "internalType": "address",
                    "name": "previousOwner",
                    "type": "address"
                },
                {
                    "indexed": true,
                    "internalType": "address",
                    "name": "newOwner",
                    "type": "address"
                }
            ],
            "name": "OwnershipTransferred",
            "type": "event"
        },
        {
            "anonymous": false,
            "inputs": [
                {
                    "indexed": true,
                    "internalType": "address",
                    "name": "from",
                    "type": "address"
                },
                {
                    "indexed": true,
                    "internalType": "address",
                    "name": "to",
                    "type": "address"
                },
                {
                    "indexed": false,
                    "internalType": "uint256",
                    "name": "value",
                    "type": "uint256"
                }
            ],
            "name": "Transfer",
            "type": "event"
        },
        {
            "inputs": [
                {
                    "internalType": "address",
                    "name": "_stakeholder",
                    "type": "address"
                }
            ],
            "name": "addStakeholder",
            "outputs": [],
            "stateMutability": "nonpayable",
            "type": "function"
        },
        {
            "inputs": [
                {
                    "internalType": "address",
                    "name": "owner",
                    "type": "address"
                },
                {
                    "internalType": "address",
                    "name": "spender",
                    "type": "address"
                }
            ],
            "name": "allowance",
            "outputs": [
                {
                    "internalType": "uint256",
                    "name": "",
                    "type": "uint256"
                }
            ],
            "stateMutability": "view",
            "type": "function"
        },
        {
            "inputs": [
                {
                    "internalType": "address",
                    "name": "spender",
                    "type": "address"
                },
                {
                    "internalType": "uint256",
                    "name": "amount",
                    "type": "uint256"
                }
            ],
            "name": "approve",
            "outputs": [
                {
                    "internalType": "bool",
                    "name": "",
                    "type": "bool"
                }
            ],
            "stateMutability": "nonpayable",
            "type": "function"
        },
        {
            "inputs": [
                {
                    "internalType": "address",
                    "name": "account",
                    "type": "address"
                }
            ],
            "name": "balanceOf",
            "outputs": [
                {
                    "internalType": "uint256",
                    "name": "",
                    "type": "uint256"
                }
            ],
            "stateMutability": "view",
            "type": "function"
        },
        {
            "inputs": [
                {
                    "internalType": "address",
                    "name": "receiver",
                    "type": "address"
                }
            ],
            "name": "buytoken",
            "outputs": [],
            "stateMutability": "payable",
            "type": "function"
        },
        {
            "inputs": [
                {
                    "internalType": "address",
                    "name": "_stakeholder",
                    "type": "address"
                }
            ],
            "name": "calculateReward",
            "outputs": [
                {
                    "internalType": "uint256",
                    "name": "",
                    "type": "uint256"
                }
            ],
            "stateMutability": "view",
            "type": "function"
        },
        {
            "inputs": [],
            "name": "claimRewards",
            "outputs": [],
            "stateMutability": "nonpayable",
            "type": "function"
        },
        {
            "inputs": [
                {
                    "internalType": "uint256",
                    "name": "_stake",
                    "type": "uint256"
                }
            ],
            "name": "createStake",
            "outputs": [],
            "stateMutability": "nonpayable",
            "type": "function"
        },
        {
            "inputs": [],
            "name": "decimals",
            "outputs": [
                {
                    "internalType": "uint8",
                    "name": "",
                    "type": "uint8"
                }
            ],
            "stateMutability": "view",
            "type": "function"
        },
        {
            "inputs": [
                {
                    "internalType": "address",
                    "name": "spender",
                    "type": "address"
                },
                {
                    "internalType": "uint256",
                    "name": "subtractedValue",
                    "type": "uint256"
                }
            ],
            "name": "decreaseAllowance",
            "outputs": [
                {
                    "internalType": "bool",
                    "name": "",
                    "type": "bool"
                }
            ],
            "stateMutability": "nonpayable",
            "type": "function"
        },
        {
            "inputs": [],
            "name": "distributeRewards",
            "outputs": [],
            "stateMutability": "nonpayable",
            "type": "function"
        },
        {
            "inputs": [
                {
                    "internalType": "address",
                    "name": "spender",
                    "type": "address"
                },
                {
                    "internalType": "uint256",
                    "name": "addedValue",
                    "type": "uint256"
                }
            ],
            "name": "increaseAllowance",
            "outputs": [
                {
                    "internalType": "bool",
                    "name": "",
                    "type": "bool"
                }
            ],
            "stateMutability": "nonpayable",
            "type": "function"
        },
        {
            "inputs": [
                {
                    "internalType": "address",
                    "name": "_address",
                    "type": "address"
                }
            ],
            "name": "isStakeholder",
            "outputs": [
                {
                    "internalType": "bool",
                    "name": "",
                    "type": "bool"
                },
                {
                    "internalType": "uint256",
                    "name": "",
                    "type": "uint256"
                }
            ],
            "stateMutability": "view",
            "type": "function"
        },
        {
            "inputs": [
                {
                    "internalType": "uint256",
                    "name": "_tokenPerEth",
                    "type": "uint256"
                }
            ],
            "name": "modifyTokenBuyPrice",
            "outputs": [],
            "stateMutability": "nonpayable",
            "type": "function"
        },
        {
            "inputs": [],
            "name": "name",
            "outputs": [
                {
                    "internalType": "string",
                    "name": "",
                    "type": "string"
                }
            ],
            "stateMutability": "view",
            "type": "function"
        },
        {
            "inputs": [],
            "name": "owner",
            "outputs": [
                {
                    "internalType": "address",
                    "name": "",
                    "type": "address"
                }
            ],
            "stateMutability": "view",
            "type": "function"
        },
        {
            "inputs": [
                {
                    "internalType": "address",
                    "name": "_stakeholder",
                    "type": "address"
                }
            ],
            "name": "removeStakeholder",
            "outputs": [],
            "stateMutability": "nonpayable",
            "type": "function"
        },
        {
            "inputs": [],
            "name": "renounceOwnership",
            "outputs": [],
            "stateMutability": "nonpayable",
            "type": "function"
        },
        {
            "inputs": [
                {
                    "internalType": "address",
                    "name": "_stakeholder",
                    "type": "address"
                }
            ],
            "name": "rewardOf",
            "outputs": [
                {
                    "internalType": "uint256",
                    "name": "",
                    "type": "uint256"
                }
            ],
            "stateMutability": "view",
            "type": "function"
        },
        {
            "inputs": [
                {
                    "internalType": "address",
                    "name": "_stakeholder",
                    "type": "address"
                }
            ],
            "name": "stakeOf",
            "outputs": [
                {
                    "internalType": "uint256",
                    "name": "",
                    "type": "uint256"
                }
            ],
            "stateMutability": "view",
            "type": "function"
        },
        {
            "inputs": [],
            "name": "symbol",
            "outputs": [
                {
                    "internalType": "string",
                    "name": "",
                    "type": "string"
                }
            ],
            "stateMutability": "view",
            "type": "function"
        },
        {
            "inputs": [],
            "name": "tokenPricePerEther",
            "outputs": [
                {
                    "internalType": "uint256",
                    "name": "",
                    "type": "uint256"
                }
            ],
            "stateMutability": "view",
            "type": "function"
        },
        {
            "inputs": [],
            "name": "tokensPerEth",
            "outputs": [
                {
                    "internalType": "uint256",
                    "name": "",
                    "type": "uint256"
                }
            ],
            "stateMutability": "view",
            "type": "function"
        },
        {
            "inputs": [],
            "name": "totalRewards",
            "outputs": [
                {
                    "internalType": "uint256",
                    "name": "",
                    "type": "uint256"
                }
            ],
            "stateMutability": "view",
            "type": "function"
        },
        {
            "inputs": [],
            "name": "totalStakes",
            "outputs": [
                {
                    "internalType": "uint256",
                    "name": "",
                    "type": "uint256"
                }
            ],
            "stateMutability": "view",
            "type": "function"
        },
        {
            "inputs": [],
            "name": "totalSupply",
            "outputs": [
                {
                    "internalType": "uint256",
                    "name": "",
                    "type": "uint256"
                }
            ],
            "stateMutability": "view",
            "type": "function"
        },
        {
            "inputs": [
                {
                    "internalType": "address",
                    "name": "to",
                    "type": "address"
                },
                {
                    "internalType": "uint256",
                    "name": "amount",
                    "type": "uint256"
                }
            ],
            "name": "transfer",
            "outputs": [
                {
                    "internalType": "bool",
                    "name": "",
                    "type": "bool"
                }
            ],
            "stateMutability": "nonpayable",
            "type": "function"
        },
        {
            "inputs": [
                {
                    "internalType": "address",
                    "name": "from",
                    "type": "address"
                },
                {
                    "internalType": "address",
                    "name": "to",
                    "type": "address"
                },
                {
                    "internalType": "uint256",
                    "name": "amount",
                    "type": "uint256"
                }
            ],
            "name": "transferFrom",
            "outputs": [
                {
                    "internalType": "bool",
                    "name": "",
                    "type": "bool"
                }
            ],
            "stateMutability": "nonpayable",
            "type": "function"
        },
        {
            "inputs": [
                {
                    "internalType": "address",
                    "name": "newOwner",
                    "type": "address"
                }
            ],
            "name": "transferOwnership",
            "outputs": [],
            "stateMutability": "nonpayable",
            "type": "function"
        },
        {
            "inputs": [],
            "name": "withdrawReward",
            "outputs": [],
            "stateMutability": "nonpayable",
            "type": "function"
        }
    ],
    "bytecode": "0x60806040523480156200001157600080fd5b506040518060400160405280600a81526020017f4269676779746f6b656e000000000000000000000000000000000000000000008152506040518060400160405280600381526020017f424754000000000000000000000000000000000000000000000000000000000081525081600390805190602001906200009692919062000346565b508060049080519060200190620000af92919062000346565b505050620000d2620000c6620000f560201b60201c565b620000fd60201b60201c565b620000e6336103e8620001c360201b60201c565b6103e8600b81905550620005a2565b600033905090565b6000600560009054906101000a900473ffffffffffffffffffffffffffffffffffffffff16905081600560006101000a81548173ffffffffffffffffffffffffffffffffffffffff021916908373ffffffffffffffffffffffffffffffffffffffff1602179055508173ffffffffffffffffffffffffffffffffffffffff168173ffffffffffffffffffffffffffffffffffffffff167f8be0079c531659141344cd1fd0a4f28419497f9722a3daafe3b4186f6b6457e060405160405180910390a35050565b600073ffffffffffffffffffffffffffffffffffffffff168273ffffffffffffffffffffffffffffffffffffffff16141562000236576040517f08c379a00000000000000000000000000000000000000000000000000000000081526004016200022d906200042e565b60405180910390fd5b6200024a600083836200033c60201b60201c565b80600260008282546200025e91906200047e565b92505081905550806000808473ffffffffffffffffffffffffffffffffffffffff1673ffffffffffffffffffffffffffffffffffffffff1681526020019081526020016000206000828254620002b591906200047e565b925050819055508173ffffffffffffffffffffffffffffffffffffffff16600073ffffffffffffffffffffffffffffffffffffffff167fddf252ad1be2c89b69c2b068fc378daa952ba7f163c4a11628f55a4df523b3ef836040516200031c919062000450565b60405180910390a362000338600083836200034160201b60201c565b5050565b505050565b505050565b8280546200035490620004e5565b90600052602060002090601f016020900481019282620003785760008555620003c4565b82601f106200039357805160ff1916838001178555620003c4565b82800160010185558215620003c4579182015b82811115620003c3578251825591602001919060010190620003a6565b5b509050620003d39190620003d7565b5090565b5b80821115620003f2576000816000905550600101620003d8565b5090565b600062000405601f836200046d565b9150620004128262000579565b602082019050919050565b6200042881620004db565b82525050565b600060208201905081810360008301526200044981620003f6565b9050919050565b60006020820190506200046760008301846200041d565b92915050565b600082825260208201905092915050565b60006200048b82620004db565b91506200049883620004db565b9250827fffffffffffffffffffffffffffffffffffffffffffffffffffffffffffffffff03821115620004d057620004cf6200051b565b5b828201905092915050565b6000819050919050565b60006002820490506001821680620004fe57607f821691505b602082108114156200051557620005146200054a565b5b50919050565b7f4e487b7100000000000000000000000000000000000000000000000000000000600052601160045260246000fd5b7f4e487b7100000000000000000000000000000000000000000000000000000000600052602260045260246000fd5b7f45524332303a206d696e7420746f20746865207a65726f206164647265737300600082015250565b612eff80620005b26000396000f3fe6080604052600436106101cd5760003560e01c8063834dc984116100f7578063bf9befb111610095578063dd62ed3e11610064578063dd62ed3e1461066d578063e5c42fd1146106aa578063ef037b90146106d3578063f2fde38b14610711576101cd565b8063bf9befb1146105c3578063c885bc58146105ee578063cbdd69b514610605578063d82e396214610630576101cd565b8063a457c2d7116100d1578063a457c2d7146104f5578063a9059cbb14610532578063abdc20201461056f578063bcb0c2d71461059a576101cd565b8063834dc984146104765780638da5cb5b1461049f57806395d89b41146104ca576101cd565b806323b872dd1161016f578063426233601161013e57806342623360146103ce5780636f4a2cd01461040b57806370a0823114610422578063715018a61461045f576101cd565b806323b872dd14610312578063313ce5671461034f578063372500ab1461037a5780633950935114610391576101cd565b8063152697bb116101ab578063152697bb1461026557806318160ddd146102815780631bf6ddae146102ac5780631d62ebd9146102d5576101cd565b806306fdde03146101d2578063095ea7b3146101fd5780630e15561a1461023a575b600080fd5b3480156101de57600080fd5b506101e761073a565b6040516101f49190612666565b60405180910390f35b34801561020957600080fd5b50610224600480360381019061021f9190612343565b6107cc565b6040516102319190612622565b60405180910390f35b34801561024657600080fd5b5061024f6107ef565b60405161025c9190612848565b60405180910390f35b61027f600480360381019061027a919061228f565b6108d3565b005b34801561028d57600080fd5b50610296610936565b6040516102a39190612848565b60405180910390f35b3480156102b857600080fd5b506102d360048036038101906102ce919061237f565b610940565b005b3480156102e157600080fd5b506102fc60048036038101906102f7919061228f565b610a39565b6040516103099190612848565b60405180910390f35b34801561031e57600080fd5b50610339600480360381019061033491906122f4565b610a82565b6040516103469190612622565b60405180910390f35b34801561035b57600080fd5b50610364610ab1565b6040516103719190612863565b60405180910390f35b34801561038657600080fd5b5061038f610aba565b005b34801561039d57600080fd5b506103b860048036038101906103b39190612343565b610baf565b6040516103c59190612622565b60405180910390f35b3480156103da57600080fd5b506103f560048036038101906103f0919061228f565b610c59565b6040516104029190612848565b60405180910390f35b34801561041757600080fd5b50610420610ca2565b005b34801561042e57600080fd5b506104496004803603810190610444919061228f565b610e13565b6040516104569190612848565b60405180910390f35b34801561046b57600080fd5b50610474610e5b565b005b34801561048257600080fd5b5061049d6004803603810190610498919061237f565b610ee3565b005b3480156104ab57600080fd5b506104b4610f69565b6040516104c19190612607565b60405180910390f35b3480156104d657600080fd5b506104df610f93565b6040516104ec9190612666565b60405180910390f35b34801561050157600080fd5b5061051c60048036038101906105179190612343565b611025565b6040516105299190612622565b60405180910390f35b34801561053e57600080fd5b5061055960048036038101906105549190612343565b61110f565b6040516105669190612622565b60405180910390f35b34801561057b57600080fd5b50610584611132565b6040516105919190612848565b60405180910390f35b3480156105a657600080fd5b506105c160048036038101906105bc919061228f565b611138565b005b3480156105cf57600080fd5b506105d8611335565b6040516105e59190612848565b60405180910390f35b3480156105fa57600080fd5b50610603611419565b005b34801561061157600080fd5b5061061a6115d3565b6040516106279190612848565b60405180910390f35b34801561063c57600080fd5b506106576004803603810190610652919061228f565b6115d9565b6040516106649190612848565b60405180910390f35b34801561067957600080fd5b50610694600480360381019061068f91906122b8565b61162e565b6040516106a19190612848565b60405180910390f35b3480156106b657600080fd5b506106d160048036038101906106cc919061228f565b6116b5565b005b3480156106df57600080fd5b506106fa60048036038101906106f5919061228f565b6117ac565b60405161070892919061263d565b60405180910390f35b34801561071d57600080fd5b506107386004803603810190610733919061228f565b611886565b005b60606003805461074990612a37565b80601f016020809104026020016040519081016040528092919081815260200182805461077590612a37565b80156107c25780601f10610797576101008083540402835291602001916107c2565b820191906000526020600020905b8154815290600101906020018083116107a557829003601f168201915b5050505050905090565b6000806107d761197e565b90506107e4818585611986565b600191505092915050565b6000806000905060005b6006805490508110156108cb576008600060068381548110610844577f4e487b7100000000000000000000000000000000000000000000000000000000600052603260045260246000fd5b9060005260206000200160009054906101000a900473ffffffffffffffffffffffffffffffffffffffff1673ffffffffffffffffffffffffffffffffffffffff1673ffffffffffffffffffffffffffffffffffffffff16815260200190815260200160002054826108b5919061289a565b91506001816108c4919061289a565b90506107f9565b508091505090565b60003411610916576040517f08c379a000000000000000000000000000000000000000000000000000000000815260040161090d906126a8565b60405180910390fd5b6000600b54346109269190612921565b90506109328282611b51565b5050565b6000600254905090565b61094a3382611cb1565b6000600760003373ffffffffffffffffffffffffffffffffffffffff1673ffffffffffffffffffffffffffffffffffffffff16815260200190815260200160002054141561099c5761099b336116b5565b5b80600760003373ffffffffffffffffffffffffffffffffffffffff1673ffffffffffffffffffffffffffffffffffffffff16815260200190815260200160002060008282546109eb919061289a565b9250508190555042600a60003373ffffffffffffffffffffffffffffffffffffffff1673ffffffffffffffffffffffffffffffffffffffff1681526020019081526020016000208190555050565b6000600860008373ffffffffffffffffffffffffffffffffffffffff1673ffffffffffffffffffffffffffffffffffffffff168152602001908152602001600020549050919050565b600080610a8d61197e565b9050610a9a858285611e88565b610aa5858585611f14565b60019150509392505050565b60006012905090565b62093a80600a60003373ffffffffffffffffffffffffffffffffffffffff1673ffffffffffffffffffffffffffffffffffffffff16815260200190815260200160002054610b08919061289a565b4211610b49576040517f08c379a0000000000000000000000000000000000000000000000000000000008152600401610b4090612788565b60405180910390fd5b6000610b54336115d9565b905080600860003373ffffffffffffffffffffffffffffffffffffffff1673ffffffffffffffffffffffffffffffffffffffff1681526020019081526020016000206000828254610ba5919061289a565b9250508190555050565b600080610bba61197e565b9050610c4e818585600160008673ffffffffffffffffffffffffffffffffffffffff1673ffffffffffffffffffffffffffffffffffffffff16815260200190815260200160002060008973ffffffffffffffffffffffffffffffffffffffff1673ffffffffffffffffffffffffffffffffffffffff16815260200190815260200160002054610c49919061289a565b611986565b600191505092915050565b6000600760008373ffffffffffffffffffffffffffffffffffffffff1673ffffffffffffffffffffffffffffffffffffffff168152602001908152602001600020549050919050565b610caa61197e565b73ffffffffffffffffffffffffffffffffffffffff16610cc8610f69565b73ffffffffffffffffffffffffffffffffffffffff1614610d1e576040517f08c379a0000000000000000000000000000000000000000000000000000000008152600401610d1590612768565b60405180910390fd5b60005b600680549050811015610e1057600060068281548110610d6a577f4e487b7100000000000000000000000000000000000000000000000000000000600052603260045260246000fd5b9060005260206000200160009054906101000a900473ffffffffffffffffffffffffffffffffffffffff1690506000610da2826115d9565b905080600860008473ffffffffffffffffffffffffffffffffffffffff1673ffffffffffffffffffffffffffffffffffffffff1681526020019081526020016000206000828254610df3919061289a565b925050819055505050600181610e09919061289a565b9050610d21565b50565b60008060008373ffffffffffffffffffffffffffffffffffffffff1673ffffffffffffffffffffffffffffffffffffffff168152602001908152602001600020549050919050565b610e6361197e565b73ffffffffffffffffffffffffffffffffffffffff16610e81610f69565b73ffffffffffffffffffffffffffffffffffffffff1614610ed7576040517f08c379a0000000000000000000000000000000000000000000000000000000008152600401610ece90612768565b60405180910390fd5b610ee16000612195565b565b610eeb61197e565b73ffffffffffffffffffffffffffffffffffffffff16610f09610f69565b73ffffffffffffffffffffffffffffffffffffffff1614610f5f576040517f08c379a0000000000000000000000000000000000000000000000000000000008152600401610f5690612768565b60405180910390fd5b80600b8190555050565b6000600560009054906101000a900473ffffffffffffffffffffffffffffffffffffffff16905090565b606060048054610fa290612a37565b80601f0160208091040260200160405190810160405280929190818152602001828054610fce90612a37565b801561101b5780601f10610ff05761010080835404028352916020019161101b565b820191906000526020600020905b815481529060010190602001808311610ffe57829003601f168201915b5050505050905090565b60008061103061197e565b90506000600160008373ffffffffffffffffffffffffffffffffffffffff1673ffffffffffffffffffffffffffffffffffffffff16815260200190815260200160002060008673ffffffffffffffffffffffffffffffffffffffff1673ffffffffffffffffffffffffffffffffffffffff168152602001908152602001600020549050838110156110f6576040517f08c379a00000000000000000000000000000000000000000000000000000000081526004016110ed90612808565b60405180910390fd5b6111038286868403611986565b60019250505092915050565b60008061111a61197e565b9050611127818585611f14565b600191505092915050565b60095481565b61114061197e565b73ffffffffffffffffffffffffffffffffffffffff1661115e610f69565b73ffffffffffffffffffffffffffffffffffffffff16146111b4576040517f08c379a00000000000000000000000000000000000000000000000000000000081526004016111ab90612768565b60405180910390fd5b6000806111c0836117ac565b91509150811561133057600660016006805490506111de919061297b565b81548110611215577f4e487b7100000000000000000000000000000000000000000000000000000000600052603260045260246000fd5b9060005260206000200160009054906101000a900473ffffffffffffffffffffffffffffffffffffffff166006828154811061127a577f4e487b7100000000000000000000000000000000000000000000000000000000600052603260045260246000fd5b9060005260206000200160006101000a81548173ffffffffffffffffffffffffffffffffffffffff021916908373ffffffffffffffffffffffffffffffffffffffff16021790555060068054806112fa577f4e487b7100000000000000000000000000000000000000000000000000000000600052603160045260246000fd5b6001900381819060005260206000200160006101000a81549073ffffffffffffffffffffffffffffffffffffffff021916905590555b505050565b6000806000905060005b60068054905081101561141157600760006006838154811061138a577f4e487b7100000000000000000000000000000000000000000000000000000000600052603260045260246000fd5b9060005260206000200160009054906101000a900473ffffffffffffffffffffffffffffffffffffffff1673ffffffffffffffffffffffffffffffffffffffff1673ffffffffffffffffffffffffffffffffffffffff16815260200190815260200160002054826113fb919061289a565b915060018161140a919061289a565b905061133f565b508091505090565b62093a80600a60003373ffffffffffffffffffffffffffffffffffffffff1673ffffffffffffffffffffffffffffffffffffffff16815260200190815260200160002054611467919061289a565b42116114a8576040517f08c379a000000000000000000000000000000000000000000000000000000000815260040161149f90612788565b60405180910390fd5b6000600860003373ffffffffffffffffffffffffffffffffffffffff1673ffffffffffffffffffffffffffffffffffffffff1681526020019081526020016000205490506000600760003373ffffffffffffffffffffffffffffffffffffffff1673ffffffffffffffffffffffffffffffffffffffff1681526020019081526020016000205490506000600860003373ffffffffffffffffffffffffffffffffffffffff1673ffffffffffffffffffffffffffffffffffffffff168152602001908152602001600020819055506000600760003373ffffffffffffffffffffffffffffffffffffffff1673ffffffffffffffffffffffffffffffffffffffff168152602001908152602001600020819055506115cf3382846115ca919061289a565b611b51565b5050565b600b5481565b60006064600760008473ffffffffffffffffffffffffffffffffffffffff1673ffffffffffffffffffffffffffffffffffffffff1681526020019081526020016000205461162791906128f0565b9050919050565b6000600160008473ffffffffffffffffffffffffffffffffffffffff1673ffffffffffffffffffffffffffffffffffffffff16815260200190815260200160002060008373ffffffffffffffffffffffffffffffffffffffff1673ffffffffffffffffffffffffffffffffffffffff16815260200190815260200160002054905092915050565b6116bd61197e565b73ffffffffffffffffffffffffffffffffffffffff166116db610f69565b73ffffffffffffffffffffffffffffffffffffffff1614611731576040517f08c379a000000000000000000000000000000000000000000000000000000000815260040161172890612768565b60405180910390fd5b600061173c826117ac565b509050806117a8576006829080600181540180825580915050600190039060005260206000200160009091909190916101000a81548173ffffffffffffffffffffffffffffffffffffffff021916908373ffffffffffffffffffffffffffffffffffffffff1602179055505b5050565b60008060005b60068054905081101561187857600681815481106117f9577f4e487b7100000000000000000000000000000000000000000000000000000000600052603260045260246000fd5b9060005260206000200160009054906101000a900473ffffffffffffffffffffffffffffffffffffffff1673ffffffffffffffffffffffffffffffffffffffff168473ffffffffffffffffffffffffffffffffffffffff161415611864576001819250925050611881565b600181611871919061289a565b90506117b2565b50600080915091505b915091565b61188e61197e565b73ffffffffffffffffffffffffffffffffffffffff166118ac610f69565b73ffffffffffffffffffffffffffffffffffffffff1614611902576040517f08c379a00000000000000000000000000000000000000000000000000000000081526004016118f990612768565b60405180910390fd5b600073ffffffffffffffffffffffffffffffffffffffff168173ffffffffffffffffffffffffffffffffffffffff161415611972576040517f08c379a0000000000000000000000000000000000000000000000000000000008152600401611969906126e8565b60405180910390fd5b61197b81612195565b50565b600033905090565b600073ffffffffffffffffffffffffffffffffffffffff168373ffffffffffffffffffffffffffffffffffffffff1614156119f6576040517f08c379a00000000000000000000000000000000000000000000000000000000081526004016119ed906127e8565b60405180910390fd5b600073ffffffffffffffffffffffffffffffffffffffff168273ffffffffffffffffffffffffffffffffffffffff161415611a66576040517f08c379a0000000000000000000000000000000000000000000000000000000008152600401611a5d90612708565b60405180910390fd5b80600160008573ffffffffffffffffffffffffffffffffffffffff1673ffffffffffffffffffffffffffffffffffffffff16815260200190815260200160002060008473ffffffffffffffffffffffffffffffffffffffff1673ffffffffffffffffffffffffffffffffffffffff168152602001908152602001600020819055508173ffffffffffffffffffffffffffffffffffffffff168373ffffffffffffffffffffffffffffffffffffffff167f8c5be1e5ebec7d5bd14f71427d1e84f3dd0314c0f7b2291e5b200ac8c7c3b92583604051611b449190612848565b60405180910390a3505050565b600073ffffffffffffffffffffffffffffffffffffffff168273ffffffffffffffffffffffffffffffffffffffff161415611bc1576040517f08c379a0000000000000000000000000000000000000000000000000000000008152600401611bb890612828565b60405180910390fd5b611bcd6000838361225b565b8060026000828254611bdf919061289a565b92505081905550806000808473ffffffffffffffffffffffffffffffffffffffff1673ffffffffffffffffffffffffffffffffffffffff1681526020019081526020016000206000828254611c34919061289a565b925050819055508173ffffffffffffffffffffffffffffffffffffffff16600073ffffffffffffffffffffffffffffffffffffffff167fddf252ad1be2c89b69c2b068fc378daa952ba7f163c4a11628f55a4df523b3ef83604051611c999190612848565b60405180910390a3611cad60008383612260565b5050565b600073ffffffffffffffffffffffffffffffffffffffff168273ffffffffffffffffffffffffffffffffffffffff161415611d21576040517f08c379a0000000000000000000000000000000000000000000000000000000008152600401611d18906127a8565b60405180910390fd5b611d2d8260008361225b565b60008060008473ffffffffffffffffffffffffffffffffffffffff1673ffffffffffffffffffffffffffffffffffffffff16815260200190815260200160002054905081811015611db3576040517f08c379a0000000000000000000000000000000000000000000000000000000008152600401611daa906126c8565b60405180910390fd5b8181036000808573ffffffffffffffffffffffffffffffffffffffff1673ffffffffffffffffffffffffffffffffffffffff168152602001908152602001600020819055508160026000828254611e0a919061297b565b92505081905550600073ffffffffffffffffffffffffffffffffffffffff168373ffffffffffffffffffffffffffffffffffffffff167fddf252ad1be2c89b69c2b068fc378daa952ba7f163c4a11628f55a4df523b3ef84604051611e6f9190612848565b60405180910390a3611e8383600084612260565b505050565b6000611e94848461162e565b90507fffffffffffffffffffffffffffffffffffffffffffffffffffffffffffffffff8114611f0e5781811015611f00576040517f08c379a0000000000000000000000000000000000000000000000000000000008152600401611ef790612728565b60405180910390fd5b611f0d8484848403611986565b5b50505050565b600073ffffffffffffffffffffffffffffffffffffffff168373ffffffffffffffffffffffffffffffffffffffff161415611f84576040517f08c379a0000000000000000000000000000000000000000000000000000000008152600401611f7b906127c8565b60405180910390fd5b600073ffffffffffffffffffffffffffffffffffffffff168273ffffffffffffffffffffffffffffffffffffffff161415611ff4576040517f08c379a0000000000000000000000000000000000000000000000000000000008152600401611feb90612688565b60405180910390fd5b611fff83838361225b565b60008060008573ffffffffffffffffffffffffffffffffffffffff1673ffffffffffffffffffffffffffffffffffffffff16815260200190815260200160002054905081811015612085576040517f08c379a000000000000000000000000000000000000000000000000000000000815260040161207c90612748565b60405180910390fd5b8181036000808673ffffffffffffffffffffffffffffffffffffffff1673ffffffffffffffffffffffffffffffffffffffff16815260200190815260200160002081905550816000808573ffffffffffffffffffffffffffffffffffffffff1673ffffffffffffffffffffffffffffffffffffffff1681526020019081526020016000206000828254612118919061289a565b925050819055508273ffffffffffffffffffffffffffffffffffffffff168473ffffffffffffffffffffffffffffffffffffffff167fddf252ad1be2c89b69c2b068fc378daa952ba7f163c4a11628f55a4df523b3ef8460405161217c9190612848565b60405180910390a361218f848484612260565b50505050565b6000600560009054906101000a900473ffffffffffffffffffffffffffffffffffffffff16905081600560006101000a81548173ffffffffffffffffffffffffffffffffffffffff021916908373ffffffffffffffffffffffffffffffffffffffff1602179055508173ffffffffffffffffffffffffffffffffffffffff168173ffffffffffffffffffffffffffffffffffffffff167f8be0079c531659141344cd1fd0a4f28419497f9722a3daafe3b4186f6b6457e060405160405180910390a35050565b505050565b505050565b60008135905061227481612e9b565b92915050565b60008135905061228981612eb2565b92915050565b6000602082840312156122a157600080fd5b60006122af84828501612265565b91505092915050565b600080604083850312156122cb57600080fd5b60006122d985828601612265565b92505060206122ea85828601612265565b9150509250929050565b60008060006060848603121561230957600080fd5b600061231786828701612265565b935050602061232886828701612265565b92505060406123398682870161227a565b9150509250925092565b6000806040838503121561235657600080fd5b600061236485828601612265565b92505060206123758582860161227a565b9150509250929050565b60006020828403121561239157600080fd5b600061239f8482850161227a565b91505092915050565b6123b1816129af565b82525050565b6123c0816129c1565b82525050565b60006123d18261287e565b6123db8185612889565b93506123eb818560208601612a04565b6123f481612af6565b840191505092915050565b600061240c602383612889565b915061241782612b07565b604082019050919050565b600061242f601b83612889565b915061243a82612b56565b602082019050919050565b6000612452602283612889565b915061245d82612b7f565b604082019050919050565b6000612475602683612889565b915061248082612bce565b604082019050919050565b6000612498602283612889565b91506124a382612c1d565b604082019050919050565b60006124bb601d83612889565b91506124c682612c6c565b602082019050919050565b60006124de602683612889565b91506124e982612c95565b604082019050919050565b6000612501602083612889565b915061250c82612ce4565b602082019050919050565b6000612524601383612889565b915061252f82612d0d565b602082019050919050565b6000612547602183612889565b915061255282612d36565b604082019050919050565b600061256a602583612889565b915061257582612d85565b604082019050919050565b600061258d602483612889565b915061259882612dd4565b604082019050919050565b60006125b0602583612889565b91506125bb82612e23565b604082019050919050565b60006125d3601f83612889565b91506125de82612e72565b602082019050919050565b6125f2816129ed565b82525050565b612601816129f7565b82525050565b600060208201905061261c60008301846123a8565b92915050565b600060208201905061263760008301846123b7565b92915050565b600060408201905061265260008301856123b7565b61265f60208301846125e9565b9392505050565b6000602082019050818103600083015261268081846123c6565b905092915050565b600060208201905081810360008301526126a1816123ff565b9050919050565b600060208201905081810360008301526126c181612422565b9050919050565b600060208201905081810360008301526126e181612445565b9050919050565b6000602082019050818103600083015261270181612468565b9050919050565b600060208201905081810360008301526127218161248b565b9050919050565b60006020820190508181036000830152612741816124ae565b9050919050565b60006020820190508181036000830152612761816124d1565b9050919050565b60006020820190508181036000830152612781816124f4565b9050919050565b600060208201905081810360008301526127a181612517565b9050919050565b600060208201905081810360008301526127c18161253a565b9050919050565b600060208201905081810360008301526127e18161255d565b9050919050565b6000602082019050818103600083015261280181612580565b9050919050565b60006020820190508181036000830152612821816125a3565b9050919050565b60006020820190508181036000830152612841816125c6565b9050919050565b600060208201905061285d60008301846125e9565b92915050565b600060208201905061287860008301846125f8565b92915050565b600081519050919050565b600082825260208201905092915050565b60006128a5826129ed565b91506128b0836129ed565b9250827fffffffffffffffffffffffffffffffffffffffffffffffffffffffffffffffff038211156128e5576128e4612a69565b5b828201905092915050565b60006128fb826129ed565b9150612906836129ed565b92508261291657612915612a98565b5b828204905092915050565b600061292c826129ed565b9150612937836129ed565b9250817fffffffffffffffffffffffffffffffffffffffffffffffffffffffffffffffff04831182151516156129705761296f612a69565b5b828202905092915050565b6000612986826129ed565b9150612991836129ed565b9250828210156129a4576129a3612a69565b5b828203905092915050565b60006129ba826129cd565b9050919050565b60008115159050919050565b600073ffffffffffffffffffffffffffffffffffffffff82169050919050565b6000819050919050565b600060ff82169050919050565b60005b83811015612a22578082015181840152602081019050612a07565b83811115612a31576000848401525b50505050565b60006002820490506001821680612a4f57607f821691505b60208210811415612a6357612a62612ac7565b5b50919050565b7f4e487b7100000000000000000000000000000000000000000000000000000000600052601160045260246000fd5b7f4e487b7100000000000000000000000000000000000000000000000000000000600052601260045260246000fd5b7f4e487b7100000000000000000000000000000000000000000000000000000000600052602260045260246000fd5b6000601f19601f8301169050919050565b7f45524332303a207472616e7366657220746f20746865207a65726f206164647260008201527f6573730000000000000000000000000000000000000000000000000000000000602082015250565b7f6f757220746f6b656e7320617265203130302f65746820626f73730000000000600082015250565b7f45524332303a206275726e20616d6f756e7420657863656564732062616c616e60008201527f6365000000000000000000000000000000000000000000000000000000000000602082015250565b7f4f776e61626c653a206e6577206f776e657220697320746865207a65726f206160008201527f6464726573730000000000000000000000000000000000000000000000000000602082015250565b7f45524332303a20617070726f766520746f20746865207a65726f20616464726560008201527f7373000000000000000000000000000000000000000000000000000000000000602082015250565b7f45524332303a20696e73756666696369656e7420616c6c6f77616e6365000000600082015250565b7f45524332303a207472616e7366657220616d6f756e742065786365656473206260008201527f616c616e63650000000000000000000000000000000000000000000000000000602082015250565b7f4f776e61626c653a2063616c6c6572206973206e6f7420746865206f776e6572600082015250565b7f4e6f74207570746f2061207765656b2079657400000000000000000000000000600082015250565b7f45524332303a206275726e2066726f6d20746865207a65726f2061646472657360008201527f7300000000000000000000000000000000000000000000000000000000000000602082015250565b7f45524332303a207472616e736665722066726f6d20746865207a65726f20616460008201527f6472657373000000000000000000000000000000000000000000000000000000602082015250565b7f45524332303a20617070726f76652066726f6d20746865207a65726f2061646460008201527f7265737300000000000000000000000000000000000000000000000000000000602082015250565b7f45524332303a2064656372656173656420616c6c6f77616e63652062656c6f7760008201527f207a65726f000000000000000000000000000000000000000000000000000000602082015250565b7f45524332303a206d696e7420746f20746865207a65726f206164647265737300600082015250565b612ea4816129af565b8114612eaf57600080fd5b50565b612ebb816129ed565b8114612ec657600080fd5b5056fea264697066735822122030a5a7fffa62dd2573d2fe502e7e62f3b606bd1f709aff33700ac4748e54c88264736f6c63430008040033",
    "linkReferences": {},
    "deployedLinkReferences": {}
}