{
  "_format": "hh-sol-artifact-1",
  "contractName": "Biggytoken",
  "sourceName": "contracts/Biggytoken.sol",
  "abi": [
    {
      "inputs": [],
      "stateMutability": "nonpayable",
      "type": "constructor"
    },
    {
      "anonymous": false,
      "inputs": [
        {
          "indexed": true,
          "internalType": "address",
          "name": "owner",
          "type": "address"
        },
        {
          "indexed": true,
          "internalType": "address",
          "name": "spender",
          "type": "address"
        },
        {
          "indexed": false,
          "internalType": "uint256",
          "name": "value",
          "type": "uint256"
        }
      ],
      "name": "Approval",
      "type": "event"
    },
    {
      "anonymous": false,
      "inputs": [
        {
          "indexed": true,
          "internalType": "address",
          "name": "previousOwner",
          "type": "address"
        },
        {
          "indexed": true,
          "internalType": "address",
          "name": "newOwner",
          "type": "address"
        }
      ],
      "name": "OwnershipTransferred",
      "type": "event"
    },
    {
      "anonymous": false,
      "inputs": [
        {
          "indexed": true,
          "internalType": "address",
          "name": "from",
          "type": "address"
        },
        {
          "indexed": true,
          "internalType": "address",
          "name": "to",
          "type": "address"
        },
        {
          "indexed": false,
          "internalType": "uint256",
          "name": "value",
          "type": "uint256"
        }
      ],
      "name": "Transfer",
      "type": "event"
    },
    {
      "inputs": [
        {
          "internalType": "address",
          "name": "_stakeholder",
          "type": "address"
        }
      ],
      "name": "addStakeholder",
      "outputs": [],
      "stateMutability": "nonpayable",
      "type": "function"
    },
    {
      "inputs": [
        {
          "internalType": "address",
          "name": "owner",
          "type": "address"
        },
        {
          "internalType": "address",
          "name": "spender",
          "type": "address"
        }
      ],
      "name": "allowance",
      "outputs": [
        {
          "internalType": "uint256",
          "name": "",
          "type": "uint256"
        }
      ],
      "stateMutability": "view",
      "type": "function"
    },
    {
      "inputs": [
        {
          "internalType": "address",
          "name": "spender",
          "type": "address"
        },
        {
          "internalType": "uint256",
          "name": "amount",
          "type": "uint256"
        }
      ],
      "name": "approve",
      "outputs": [
        {
          "internalType": "bool",
          "name": "",
          "type": "bool"
        }
      ],
      "stateMutability": "nonpayable",
      "type": "function"
    },
    {
      "inputs": [
        {
          "internalType": "address",
          "name": "account",
          "type": "address"
        }
      ],
      "name": "balanceOf",
      "outputs": [
        {
          "internalType": "uint256",
          "name": "",
          "type": "uint256"
        }
      ],
      "stateMutability": "view",
      "type": "function"
    },
    {
      "inputs": [
        {
          "internalType": "address",
          "name": "receiver",
          "type": "address"
        }
      ],
      "name": "buytoken",
      "outputs": [],
      "stateMutability": "payable",
      "type": "function"
    },
    {
      "inputs": [
        {
          "internalType": "address",
          "name": "_stakeholder",
          "type": "address"
        }
      ],
      "name": "calculateReward",
      "outputs": [
        {
          "internalType": "uint256",
          "name": "",
          "type": "uint256"
        }
      ],
      "stateMutability": "view",
      "type": "function"
    },
    {
      "inputs": [],
      "name": "claimRewards",
      "outputs": [],
      "stateMutability": "nonpayable",
      "type": "function"
    },
    {
      "inputs": [
        {
          "internalType": "uint256",
          "name": "_stake",
          "type": "uint256"
        }
      ],
      "name": "createStake",
      "outputs": [],
      "stateMutability": "nonpayable",
      "type": "function"
    },
    {
      "inputs": [],
      "name": "decimals",
      "outputs": [
        {
          "internalType": "uint8",
          "name": "",
          "type": "uint8"
        }
      ],
      "stateMutability": "view",
      "type": "function"
    },
    {
      "inputs": [
        {
          "internalType": "address",
          "name": "spender",
          "type": "address"
        },
        {
          "internalType": "uint256",
          "name": "subtractedValue",
          "type": "uint256"
        }
      ],
      "name": "decreaseAllowance",
      "outputs": [
        {
          "internalType": "bool",
          "name": "",
          "type": "bool"
        }
      ],
      "stateMutability": "nonpayable",
      "type": "function"
    },
    {
      "inputs": [],
      "name": "distributeRewards",
      "outputs": [],
      "stateMutability": "nonpayable",
      "type": "function"
    },
    {
      "inputs": [
        {
          "internalType": "address",
          "name": "spender",
          "type": "address"
        },
        {
          "internalType": "uint256",
          "name": "addedValue",
          "type": "uint256"
        }
      ],
      "name": "increaseAllowance",
      "outputs": [
        {
          "internalType": "bool",
          "name": "",
          "type": "bool"
        }
      ],
      "stateMutability": "nonpayable",
      "type": "function"
    },
    {
      "inputs": [
        {
          "internalType": "address",
          "name": "_address",
          "type": "address"
        }
      ],
      "name": "isStakeholder",
      "outputs": [
        {
          "internalType": "bool",
          "name": "",
          "type": "bool"
        },
        {
          "internalType": "uint256",
          "name": "",
          "type": "uint256"
        }
      ],
      "stateMutability": "view",
      "type": "function"
    },
    {
      "inputs": [
        {
          "internalType": "uint256",
          "name": "_tokenPerEth",
          "type": "uint256"
        }
      ],
      "name": "modifyTokenBuyPrice",
      "outputs": [],
      "stateMutability": "nonpayable",
      "type": "function"
    },
    {
      "inputs": [],
      "name": "name",
      "outputs": [
        {
          "internalType": "string",
          "name": "",
          "type": "string"
        }
      ],
      "stateMutability": "view",
      "type": "function"
    },
    {
      "inputs": [],
      "name": "owner",
      "outputs": [
        {
          "internalType": "address",
          "name": "",
          "type": "address"
        }
      ],
      "stateMutability": "view",
      "type": "function"
    },
    {
      "inputs": [
        {
          "internalType": "address",
          "name": "_stakeholder",
          "type": "address"
        }
      ],
      "name": "removeStakeholder",
      "outputs": [],
      "stateMutability": "nonpayable",
      "type": "function"
    },
    {
      "inputs": [],
      "name": "renounceOwnership",
      "outputs": [],
      "stateMutability": "nonpayable",
      "type": "function"
    },
    {
      "inputs": [
        {
          "internalType": "address",
          "name": "_stakeholder",
          "type": "address"
        }
      ],
      "name": "rewardOf",
      "outputs": [
        {
          "internalType": "uint256",
          "name": "",
          "type": "uint256"
        }
      ],
      "stateMutability": "view",
      "type": "function"
    },
    {
      "inputs": [
        {
          "internalType": "address",
          "name": "_stakeholder",
          "type": "address"
        }
      ],
      "name": "stakeOf",
      "outputs": [
        {
          "internalType": "uint256",
          "name": "",
          "type": "uint256"
        }
      ],
      "stateMutability": "view",
      "type": "function"
    },
    {
      "inputs": [],
      "name": "symbol",
      "outputs": [
        {
          "internalType": "string",
          "name": "",
          "type": "string"
        }
      ],
      "stateMutability": "view",
      "type": "function"
    },
    {
      "inputs": [],
      "name": "tokenPricePerEther",
      "outputs": [
        {
          "internalType": "uint256",
          "name": "",
          "type": "uint256"
        }
      ],
      "stateMutability": "view",
      "type": "function"
    },
    {
      "inputs": [],
      "name": "tokensPerEth",
      "outputs": [
        {
          "internalType": "uint256",
          "name": "",
          "type": "uint256"
        }
      ],
      "stateMutability": "view",
      "type": "function"
    },
    {
      "inputs": [],
      "name": "totalRewards",
      "outputs": [
        {
          "internalType": "uint256",
          "name": "",
          "type": "uint256"
        }
      ],
      "stateMutability": "view",
      "type": "function"
    },
    {
      "inputs": [],
      "name": "totalStakes",
      "outputs": [
        {
          "internalType": "uint256",
          "name": "",
          "type": "uint256"
        }
      ],
      "stateMutability": "view",
      "type": "function"
    },
    {
      "inputs": [],
      "name": "totalSupply",
      "outputs": [
        {
          "internalType": "uint256",
          "name": "",
          "type": "uint256"
        }
      ],
      "stateMutability": "view",
      "type": "function"
    },
    {
      "inputs": [
        {
          "internalType": "address",
          "name": "to",
          "type": "address"
        },
        {
          "internalType": "uint256",
          "name": "amount",
          "type": "uint256"
        }
      ],
      "name": "transfer",
      "outputs": [
        {
          "internalType": "bool",
          "name": "",
          "type": "bool"
        }
      ],
      "stateMutability": "nonpayable",
      "type": "function"
    },
    {
      "inputs": [
        {
          "internalType": "address",
          "name": "from",
          "type": "address"
        },
        {
          "internalType": "address",
          "name": "to",
          "type": "address"
        },
        {
          "internalType": "uint256",
          "name": "amount",
          "type": "uint256"
        }
      ],
      "name": "transferFrom",
      "outputs": [
        {
          "internalType": "bool",
          "name": "",
          "type": "bool"
        }
      ],
      "stateMutability": "nonpayable",
      "type": "function"
    },
    {
      "inputs": [
        {
          "internalType": "address",
          "name": "newOwner",
          "type": "address"
        }
      ],
      "name": "transferOwnership",
      "outputs": [],
      "stateMutability": "nonpayable",
      "type": "function"
    },
    {
      "inputs": [],
      "name": "withdrawReward",
      "outputs": [],
      "stateMutability": "nonpayable",
      "type": "function"
    }
  ],
  "bytecode": "0x60806040523480156200001157600080fd5b506040518060400160405280600a81526020017f4269676779746f6b656e000000000000000000000000000000000000000000008152506040518060400160405280600381526020017f424754000000000000000000000000000000000000000000000000000000000081525081600390805190602001906200009692919062000346565b508060049080519060200190620000af92919062000346565b505050620000d2620000c6620000f560201b60201c565b620000fd60201b60201c565b620000e6336103e8620001c360201b60201c565b6103e8600b81905550620005a2565b600033905090565b6000600560009054906101000a900473ffffffffffffffffffffffffffffffffffffffff16905081600560006101000a81548173ffffffffffffffffffffffffffffffffffffffff021916908373ffffffffffffffffffffffffffffffffffffffff1602179055508173ffffffffffffffffffffffffffffffffffffffff168173ffffffffffffffffffffffffffffffffffffffff167f8be0079c531659141344cd1fd0a4f28419497f9722a3daafe3b4186f6b6457e060405160405180910390a35050565b600073ffffffffffffffffffffffffffffffffffffffff168273ffffffffffffffffffffffffffffffffffffffff16141562000236576040517f08c379a00000000000000000000000000000000000000000000000000000000081526004016200022d906200042e565b60405180910390fd5b6200024a600083836200033c60201b60201c565b80600260008282546200025e91906200047e565b92505081905550806000808473ffffffffffffffffffffffffffffffffffffffff1673ffffffffffffffffffffffffffffffffffffffff1681526020019081526020016000206000828254620002b591906200047e565b925050819055508173ffffffffffffffffffffffffffffffffffffffff16600073ffffffffffffffffffffffffffffffffffffffff167fddf252ad1be2c89b69c2b068fc378daa952ba7f163c4a11628f55a4df523b3ef836040516200031c919062000450565b60405180910390a362000338600083836200034160201b60201c565b5050565b505050565b505050565b8280546200035490620004e5565b90600052602060002090601f016020900481019282620003785760008555620003c4565b82601f106200039357805160ff1916838001178555620003c4565b82800160010185558215620003c4579182015b82811115620003c3578251825591602001919060010190620003a6565b5b509050620003d39190620003d7565b5090565b5b80821115620003f2576000816000905550600101620003d8565b5090565b600062000405601f836200046d565b9150620004128262000579565b602082019050919050565b6200042881620004db565b82525050565b600060208201905081810360008301526200044981620003f6565b9050919050565b60006020820190506200046760008301846200041d565b92915050565b600082825260208201905092915050565b60006200048b82620004db565b91506200049883620004db565b9250827fffffffffffffffffffffffffffffffffffffffffffffffffffffffffffffffff03821115620004d057620004cf6200051b565b5b828201905092915050565b6000819050919050565b60006002820490506001821680620004fe57607f821691505b602082108114156200051557620005146200054a565b5b50919050565b7f4e487b7100000000000000000000000000000000000000000000000000000000600052601160045260246000fd5b7f4e487b7100000000000000000000000000000000000000000000000000000000600052602260045260246000fd5b7f45524332303a206d696e7420746f20746865207a65726f206164647265737300600082015250565b612f1e80620005b26000396000f3fe6080604052600436106101cd5760003560e01c8063834dc984116100f7578063bf9befb111610095578063dd62ed3e11610064578063dd62ed3e1461066d578063e5c42fd1146106aa578063ef037b90146106d3578063f2fde38b14610711576101cd565b8063bf9befb1146105c3578063c885bc58146105ee578063cbdd69b514610605578063d82e396214610630576101cd565b8063a457c2d7116100d1578063a457c2d7146104f5578063a9059cbb14610532578063abdc20201461056f578063bcb0c2d71461059a576101cd565b8063834dc984146104765780638da5cb5b1461049f57806395d89b41146104ca576101cd565b806323b872dd1161016f578063426233601161013e57806342623360146103ce5780636f4a2cd01461040b57806370a0823114610422578063715018a61461045f576101cd565b806323b872dd14610312578063313ce5671461034f578063372500ab1461037a5780633950935114610391576101cd565b8063152697bb116101ab578063152697bb1461026557806318160ddd146102815780631bf6ddae146102ac5780631d62ebd9146102d5576101cd565b806306fdde03146101d2578063095ea7b3146101fd5780630e15561a1461023a575b600080fd5b3480156101de57600080fd5b506101e761073a565b6040516101f49190612685565b60405180910390f35b34801561020957600080fd5b50610224600480360381019061021f9190612362565b6107cc565b6040516102319190612641565b60405180910390f35b34801561024657600080fd5b5061024f6107ef565b60405161025c9190612867565b60405180910390f35b61027f600480360381019061027a91906122ae565b6108d3565b005b34801561028d57600080fd5b50610296610936565b6040516102a39190612867565b60405180910390f35b3480156102b857600080fd5b506102d360048036038101906102ce919061239e565b610940565b005b3480156102e157600080fd5b506102fc60048036038101906102f791906122ae565b610a39565b6040516103099190612867565b60405180910390f35b34801561031e57600080fd5b5061033960048036038101906103349190612313565b610a82565b6040516103469190612641565b60405180910390f35b34801561035b57600080fd5b50610364610ab1565b6040516103719190612882565b60405180910390f35b34801561038657600080fd5b5061038f610aba565b005b34801561039d57600080fd5b506103b860048036038101906103b39190612362565b610c4a565b6040516103c59190612641565b60405180910390f35b3480156103da57600080fd5b506103f560048036038101906103f091906122ae565b610cf4565b6040516104029190612867565b60405180910390f35b34801561041757600080fd5b50610420610d3d565b005b34801561042e57600080fd5b50610449600480360381019061044491906122ae565b610eae565b6040516104569190612867565b60405180910390f35b34801561046b57600080fd5b50610474610ef6565b005b34801561048257600080fd5b5061049d6004803603810190610498919061239e565b610f7e565b005b3480156104ab57600080fd5b506104b4611004565b6040516104c19190612626565b60405180910390f35b3480156104d657600080fd5b506104df61102e565b6040516104ec9190612685565b60405180910390f35b34801561050157600080fd5b5061051c60048036038101906105179190612362565b6110c0565b6040516105299190612641565b60405180910390f35b34801561053e57600080fd5b5061055960048036038101906105549190612362565b6111aa565b6040516105669190612641565b60405180910390f35b34801561057b57600080fd5b506105846111cd565b6040516105919190612867565b60405180910390f35b3480156105a657600080fd5b506105c160048036038101906105bc91906122ae565b6111d3565b005b3480156105cf57600080fd5b506105d86113d0565b6040516105e59190612867565b60405180910390f35b3480156105fa57600080fd5b506106036114b4565b005b34801561061157600080fd5b5061061a61166e565b6040516106279190612867565b60405180910390f35b34801561063c57600080fd5b50610657600480360381019061065291906122ae565b611674565b6040516106649190612867565b60405180910390f35b34801561067957600080fd5b50610694600480360381019061068f91906122d7565b6116c9565b6040516106a19190612867565b60405180910390f35b3480156106b657600080fd5b506106d160048036038101906106cc91906122ae565b611750565b005b3480156106df57600080fd5b506106fa60048036038101906106f591906122ae565b6117cb565b60405161070892919061265c565b60405180910390f35b34801561071d57600080fd5b50610738600480360381019061073391906122ae565b6118a5565b005b60606003805461074990612a56565b80601f016020809104026020016040519081016040528092919081815260200182805461077590612a56565b80156107c25780601f10610797576101008083540402835291602001916107c2565b820191906000526020600020905b8154815290600101906020018083116107a557829003601f168201915b5050505050905090565b6000806107d761199d565b90506107e48185856119a5565b600191505092915050565b6000806000905060005b6006805490508110156108cb576008600060068381548110610844577f4e487b7100000000000000000000000000000000000000000000000000000000600052603260045260246000fd5b9060005260206000200160009054906101000a900473ffffffffffffffffffffffffffffffffffffffff1673ffffffffffffffffffffffffffffffffffffffff1673ffffffffffffffffffffffffffffffffffffffff16815260200190815260200160002054826108b591906128b9565b91506001816108c491906128b9565b90506107f9565b508091505090565b60003411610916576040517f08c379a000000000000000000000000000000000000000000000000000000000815260040161090d906126c7565b60405180910390fd5b6000600b54346109269190612940565b90506109328282611b70565b5050565b6000600254905090565b61094a3382611cd0565b6000600760003373ffffffffffffffffffffffffffffffffffffffff1673ffffffffffffffffffffffffffffffffffffffff16815260200190815260200160002054141561099c5761099b33611750565b5b80600760003373ffffffffffffffffffffffffffffffffffffffff1673ffffffffffffffffffffffffffffffffffffffff16815260200190815260200160002060008282546109eb91906128b9565b9250508190555042600a60003373ffffffffffffffffffffffffffffffffffffffff1673ffffffffffffffffffffffffffffffffffffffff1681526020019081526020016000208190555050565b6000600860008373ffffffffffffffffffffffffffffffffffffffff1673ffffffffffffffffffffffffffffffffffffffff168152602001908152602001600020549050919050565b600080610a8d61199d565b9050610a9a858285611ea7565b610aa5858585611f33565b60019150509392505050565b60006012905090565b62093a80600a60003373ffffffffffffffffffffffffffffffffffffffff1673ffffffffffffffffffffffffffffffffffffffff16815260200190815260200160002054610b0891906128b9565b4211610b49576040517f08c379a0000000000000000000000000000000000000000000000000000000008152600401610b40906127a7565b60405180910390fd5b6000610b5433611674565b905080600860003373ffffffffffffffffffffffffffffffffffffffff1673ffffffffffffffffffffffffffffffffffffffff1681526020019081526020016000206000828254610ba591906128b9565b9250508190555062127500600a60003373ffffffffffffffffffffffffffffffffffffffff1673ffffffffffffffffffffffffffffffffffffffff16815260200190815260200160002054610bfa91906128b9565b421115610c47576000600860003373ffffffffffffffffffffffffffffffffffffffff1673ffffffffffffffffffffffffffffffffffffffff168152602001908152602001600020819055505b50565b600080610c5561199d565b9050610ce9818585600160008673ffffffffffffffffffffffffffffffffffffffff1673ffffffffffffffffffffffffffffffffffffffff16815260200190815260200160002060008973ffffffffffffffffffffffffffffffffffffffff1673ffffffffffffffffffffffffffffffffffffffff16815260200190815260200160002054610ce491906128b9565b6119a5565b600191505092915050565b6000600760008373ffffffffffffffffffffffffffffffffffffffff1673ffffffffffffffffffffffffffffffffffffffff168152602001908152602001600020549050919050565b610d4561199d565b73ffffffffffffffffffffffffffffffffffffffff16610d63611004565b73ffffffffffffffffffffffffffffffffffffffff1614610db9576040517f08c379a0000000000000000000000000000000000000000000000000000000008152600401610db090612787565b60405180910390fd5b60005b600680549050811015610eab57600060068281548110610e05577f4e487b7100000000000000000000000000000000000000000000000000000000600052603260045260246000fd5b9060005260206000200160009054906101000a900473ffffffffffffffffffffffffffffffffffffffff1690506000610e3d82611674565b905080600860008473ffffffffffffffffffffffffffffffffffffffff1673ffffffffffffffffffffffffffffffffffffffff1681526020019081526020016000206000828254610e8e91906128b9565b925050819055505050600181610ea491906128b9565b9050610dbc565b50565b60008060008373ffffffffffffffffffffffffffffffffffffffff1673ffffffffffffffffffffffffffffffffffffffff168152602001908152602001600020549050919050565b610efe61199d565b73ffffffffffffffffffffffffffffffffffffffff16610f1c611004565b73ffffffffffffffffffffffffffffffffffffffff1614610f72576040517f08c379a0000000000000000000000000000000000000000000000000000000008152600401610f6990612787565b60405180910390fd5b610f7c60006121b4565b565b610f8661199d565b73ffffffffffffffffffffffffffffffffffffffff16610fa4611004565b73ffffffffffffffffffffffffffffffffffffffff1614610ffa576040517f08c379a0000000000000000000000000000000000000000000000000000000008152600401610ff190612787565b60405180910390fd5b80600b8190555050565b6000600560009054906101000a900473ffffffffffffffffffffffffffffffffffffffff16905090565b60606004805461103d90612a56565b80601f016020809104026020016040519081016040528092919081815260200182805461106990612a56565b80156110b65780601f1061108b576101008083540402835291602001916110b6565b820191906000526020600020905b81548152906001019060200180831161109957829003601f168201915b5050505050905090565b6000806110cb61199d565b90506000600160008373ffffffffffffffffffffffffffffffffffffffff1673ffffffffffffffffffffffffffffffffffffffff16815260200190815260200160002060008673ffffffffffffffffffffffffffffffffffffffff1673ffffffffffffffffffffffffffffffffffffffff16815260200190815260200160002054905083811015611191576040517f08c379a000000000000000000000000000000000000000000000000000000000815260040161118890612827565b60405180910390fd5b61119e82868684036119a5565b60019250505092915050565b6000806111b561199d565b90506111c2818585611f33565b600191505092915050565b60095481565b6111db61199d565b73ffffffffffffffffffffffffffffffffffffffff166111f9611004565b73ffffffffffffffffffffffffffffffffffffffff161461124f576040517f08c379a000000000000000000000000000000000000000000000000000000000815260040161124690612787565b60405180910390fd5b60008061125b836117cb565b9150915081156113cb5760066001600680549050611279919061299a565b815481106112b0577f4e487b7100000000000000000000000000000000000000000000000000000000600052603260045260246000fd5b9060005260206000200160009054906101000a900473ffffffffffffffffffffffffffffffffffffffff1660068281548110611315577f4e487b7100000000000000000000000000000000000000000000000000000000600052603260045260246000fd5b9060005260206000200160006101000a81548173ffffffffffffffffffffffffffffffffffffffff021916908373ffffffffffffffffffffffffffffffffffffffff1602179055506006805480611395577f4e487b7100000000000000000000000000000000000000000000000000000000600052603160045260246000fd5b6001900381819060005260206000200160006101000a81549073ffffffffffffffffffffffffffffffffffffffff021916905590555b505050565b6000806000905060005b6006805490508110156114ac576007600060068381548110611425577f4e487b7100000000000000000000000000000000000000000000000000000000600052603260045260246000fd5b9060005260206000200160009054906101000a900473ffffffffffffffffffffffffffffffffffffffff1673ffffffffffffffffffffffffffffffffffffffff1673ffffffffffffffffffffffffffffffffffffffff168152602001908152602001600020548261149691906128b9565b91506001816114a591906128b9565b90506113da565b508091505090565b62093a80600a60003373ffffffffffffffffffffffffffffffffffffffff1673ffffffffffffffffffffffffffffffffffffffff1681526020019081526020016000205461150291906128b9565b4211611543576040517f08c379a000000000000000000000000000000000000000000000000000000000815260040161153a906127a7565b60405180910390fd5b6000600860003373ffffffffffffffffffffffffffffffffffffffff1673ffffffffffffffffffffffffffffffffffffffff1681526020019081526020016000205490506000600760003373ffffffffffffffffffffffffffffffffffffffff1673ffffffffffffffffffffffffffffffffffffffff1681526020019081526020016000205490506000600860003373ffffffffffffffffffffffffffffffffffffffff1673ffffffffffffffffffffffffffffffffffffffff168152602001908152602001600020819055506000600760003373ffffffffffffffffffffffffffffffffffffffff1673ffffffffffffffffffffffffffffffffffffffff1681526020019081526020016000208190555061166a33828461166591906128b9565b611b70565b5050565b600b5481565b60006064600760008473ffffffffffffffffffffffffffffffffffffffff1673ffffffffffffffffffffffffffffffffffffffff168152602001908152602001600020546116c2919061290f565b9050919050565b6000600160008473ffffffffffffffffffffffffffffffffffffffff1673ffffffffffffffffffffffffffffffffffffffff16815260200190815260200160002060008373ffffffffffffffffffffffffffffffffffffffff1673ffffffffffffffffffffffffffffffffffffffff16815260200190815260200160002054905092915050565b600061175b826117cb565b509050806117c7576006829080600181540180825580915050600190039060005260206000200160009091909190916101000a81548173ffffffffffffffffffffffffffffffffffffffff021916908373ffffffffffffffffffffffffffffffffffffffff1602179055505b5050565b60008060005b6006805490508110156118975760068181548110611818577f4e487b7100000000000000000000000000000000000000000000000000000000600052603260045260246000fd5b9060005260206000200160009054906101000a900473ffffffffffffffffffffffffffffffffffffffff1673ffffffffffffffffffffffffffffffffffffffff168473ffffffffffffffffffffffffffffffffffffffff1614156118835760018192509250506118a0565b60018161189091906128b9565b90506117d1565b50600080915091505b915091565b6118ad61199d565b73ffffffffffffffffffffffffffffffffffffffff166118cb611004565b73ffffffffffffffffffffffffffffffffffffffff1614611921576040517f08c379a000000000000000000000000000000000000000000000000000000000815260040161191890612787565b60405180910390fd5b600073ffffffffffffffffffffffffffffffffffffffff168173ffffffffffffffffffffffffffffffffffffffff161415611991576040517f08c379a000000000000000000000000000000000000000000000000000000000815260040161198890612707565b60405180910390fd5b61199a816121b4565b50565b600033905090565b600073ffffffffffffffffffffffffffffffffffffffff168373ffffffffffffffffffffffffffffffffffffffff161415611a15576040517f08c379a0000000000000000000000000000000000000000000000000000000008152600401611a0c90612807565b60405180910390fd5b600073ffffffffffffffffffffffffffffffffffffffff168273ffffffffffffffffffffffffffffffffffffffff161415611a85576040517f08c379a0000000000000000000000000000000000000000000000000000000008152600401611a7c90612727565b60405180910390fd5b80600160008573ffffffffffffffffffffffffffffffffffffffff1673ffffffffffffffffffffffffffffffffffffffff16815260200190815260200160002060008473ffffffffffffffffffffffffffffffffffffffff1673ffffffffffffffffffffffffffffffffffffffff168152602001908152602001600020819055508173ffffffffffffffffffffffffffffffffffffffff168373ffffffffffffffffffffffffffffffffffffffff167f8c5be1e5ebec7d5bd14f71427d1e84f3dd0314c0f7b2291e5b200ac8c7c3b92583604051611b639190612867565b60405180910390a3505050565b600073ffffffffffffffffffffffffffffffffffffffff168273ffffffffffffffffffffffffffffffffffffffff161415611be0576040517f08c379a0000000000000000000000000000000000000000000000000000000008152600401611bd790612847565b60405180910390fd5b611bec6000838361227a565b8060026000828254611bfe91906128b9565b92505081905550806000808473ffffffffffffffffffffffffffffffffffffffff1673ffffffffffffffffffffffffffffffffffffffff1681526020019081526020016000206000828254611c5391906128b9565b925050819055508173ffffffffffffffffffffffffffffffffffffffff16600073ffffffffffffffffffffffffffffffffffffffff167fddf252ad1be2c89b69c2b068fc378daa952ba7f163c4a11628f55a4df523b3ef83604051611cb89190612867565b60405180910390a3611ccc6000838361227f565b5050565b600073ffffffffffffffffffffffffffffffffffffffff168273ffffffffffffffffffffffffffffffffffffffff161415611d40576040517f08c379a0000000000000000000000000000000000000000000000000000000008152600401611d37906127c7565b60405180910390fd5b611d4c8260008361227a565b60008060008473ffffffffffffffffffffffffffffffffffffffff1673ffffffffffffffffffffffffffffffffffffffff16815260200190815260200160002054905081811015611dd2576040517f08c379a0000000000000000000000000000000000000000000000000000000008152600401611dc9906126e7565b60405180910390fd5b8181036000808573ffffffffffffffffffffffffffffffffffffffff1673ffffffffffffffffffffffffffffffffffffffff168152602001908152602001600020819055508160026000828254611e29919061299a565b92505081905550600073ffffffffffffffffffffffffffffffffffffffff168373ffffffffffffffffffffffffffffffffffffffff167fddf252ad1be2c89b69c2b068fc378daa952ba7f163c4a11628f55a4df523b3ef84604051611e8e9190612867565b60405180910390a3611ea28360008461227f565b505050565b6000611eb384846116c9565b90507fffffffffffffffffffffffffffffffffffffffffffffffffffffffffffffffff8114611f2d5781811015611f1f576040517f08c379a0000000000000000000000000000000000000000000000000000000008152600401611f1690612747565b60405180910390fd5b611f2c84848484036119a5565b5b50505050565b600073ffffffffffffffffffffffffffffffffffffffff168373ffffffffffffffffffffffffffffffffffffffff161415611fa3576040517f08c379a0000000000000000000000000000000000000000000000000000000008152600401611f9a906127e7565b60405180910390fd5b600073ffffffffffffffffffffffffffffffffffffffff168273ffffffffffffffffffffffffffffffffffffffff161415612013576040517f08c379a000000000000000000000000000000000000000000000000000000000815260040161200a906126a7565b60405180910390fd5b61201e83838361227a565b60008060008573ffffffffffffffffffffffffffffffffffffffff1673ffffffffffffffffffffffffffffffffffffffff168152602001908152602001600020549050818110156120a4576040517f08c379a000000000000000000000000000000000000000000000000000000000815260040161209b90612767565b60405180910390fd5b8181036000808673ffffffffffffffffffffffffffffffffffffffff1673ffffffffffffffffffffffffffffffffffffffff16815260200190815260200160002081905550816000808573ffffffffffffffffffffffffffffffffffffffff1673ffffffffffffffffffffffffffffffffffffffff168152602001908152602001600020600082825461213791906128b9565b925050819055508273ffffffffffffffffffffffffffffffffffffffff168473ffffffffffffffffffffffffffffffffffffffff167fddf252ad1be2c89b69c2b068fc378daa952ba7f163c4a11628f55a4df523b3ef8460405161219b9190612867565b60405180910390a36121ae84848461227f565b50505050565b6000600560009054906101000a900473ffffffffffffffffffffffffffffffffffffffff16905081600560006101000a81548173ffffffffffffffffffffffffffffffffffffffff021916908373ffffffffffffffffffffffffffffffffffffffff1602179055508173ffffffffffffffffffffffffffffffffffffffff168173ffffffffffffffffffffffffffffffffffffffff167f8be0079c531659141344cd1fd0a4f28419497f9722a3daafe3b4186f6b6457e060405160405180910390a35050565b505050565b505050565b60008135905061229381612eba565b92915050565b6000813590506122a881612ed1565b92915050565b6000602082840312156122c057600080fd5b60006122ce84828501612284565b91505092915050565b600080604083850312156122ea57600080fd5b60006122f885828601612284565b925050602061230985828601612284565b9150509250929050565b60008060006060848603121561232857600080fd5b600061233686828701612284565b935050602061234786828701612284565b925050604061235886828701612299565b9150509250925092565b6000806040838503121561237557600080fd5b600061238385828601612284565b925050602061239485828601612299565b9150509250929050565b6000602082840312156123b057600080fd5b60006123be84828501612299565b91505092915050565b6123d0816129ce565b82525050565b6123df816129e0565b82525050565b60006123f08261289d565b6123fa81856128a8565b935061240a818560208601612a23565b61241381612b15565b840191505092915050565b600061242b6023836128a8565b915061243682612b26565b604082019050919050565b600061244e601b836128a8565b915061245982612b75565b602082019050919050565b60006124716022836128a8565b915061247c82612b9e565b604082019050919050565b60006124946026836128a8565b915061249f82612bed565b604082019050919050565b60006124b76022836128a8565b91506124c282612c3c565b604082019050919050565b60006124da601d836128a8565b91506124e582612c8b565b602082019050919050565b60006124fd6026836128a8565b915061250882612cb4565b604082019050919050565b60006125206020836128a8565b915061252b82612d03565b602082019050919050565b60006125436013836128a8565b915061254e82612d2c565b602082019050919050565b60006125666021836128a8565b915061257182612d55565b604082019050919050565b60006125896025836128a8565b915061259482612da4565b604082019050919050565b60006125ac6024836128a8565b91506125b782612df3565b604082019050919050565b60006125cf6025836128a8565b91506125da82612e42565b604082019050919050565b60006125f2601f836128a8565b91506125fd82612e91565b602082019050919050565b61261181612a0c565b82525050565b61262081612a16565b82525050565b600060208201905061263b60008301846123c7565b92915050565b600060208201905061265660008301846123d6565b92915050565b600060408201905061267160008301856123d6565b61267e6020830184612608565b9392505050565b6000602082019050818103600083015261269f81846123e5565b905092915050565b600060208201905081810360008301526126c08161241e565b9050919050565b600060208201905081810360008301526126e081612441565b9050919050565b6000602082019050818103600083015261270081612464565b9050919050565b6000602082019050818103600083015261272081612487565b9050919050565b60006020820190508181036000830152612740816124aa565b9050919050565b60006020820190508181036000830152612760816124cd565b9050919050565b60006020820190508181036000830152612780816124f0565b9050919050565b600060208201905081810360008301526127a081612513565b9050919050565b600060208201905081810360008301526127c081612536565b9050919050565b600060208201905081810360008301526127e081612559565b9050919050565b600060208201905081810360008301526128008161257c565b9050919050565b600060208201905081810360008301526128208161259f565b9050919050565b60006020820190508181036000830152612840816125c2565b9050919050565b60006020820190508181036000830152612860816125e5565b9050919050565b600060208201905061287c6000830184612608565b92915050565b60006020820190506128976000830184612617565b92915050565b600081519050919050565b600082825260208201905092915050565b60006128c482612a0c565b91506128cf83612a0c565b9250827fffffffffffffffffffffffffffffffffffffffffffffffffffffffffffffffff0382111561290457612903612a88565b5b828201905092915050565b600061291a82612a0c565b915061292583612a0c565b92508261293557612934612ab7565b5b828204905092915050565b600061294b82612a0c565b915061295683612a0c565b9250817fffffffffffffffffffffffffffffffffffffffffffffffffffffffffffffffff048311821515161561298f5761298e612a88565b5b828202905092915050565b60006129a582612a0c565b91506129b083612a0c565b9250828210156129c3576129c2612a88565b5b828203905092915050565b60006129d9826129ec565b9050919050565b60008115159050919050565b600073ffffffffffffffffffffffffffffffffffffffff82169050919050565b6000819050919050565b600060ff82169050919050565b60005b83811015612a41578082015181840152602081019050612a26565b83811115612a50576000848401525b50505050565b60006002820490506001821680612a6e57607f821691505b60208210811415612a8257612a81612ae6565b5b50919050565b7f4e487b7100000000000000000000000000000000000000000000000000000000600052601160045260246000fd5b7f4e487b7100000000000000000000000000000000000000000000000000000000600052601260045260246000fd5b7f4e487b7100000000000000000000000000000000000000000000000000000000600052602260045260246000fd5b6000601f19601f8301169050919050565b7f45524332303a207472616e7366657220746f20746865207a65726f206164647260008201527f6573730000000000000000000000000000000000000000000000000000000000602082015250565b7f6f757220746f6b656e7320617265203130302f65746820626f73730000000000600082015250565b7f45524332303a206275726e20616d6f756e7420657863656564732062616c616e60008201527f6365000000000000000000000000000000000000000000000000000000000000602082015250565b7f4f776e61626c653a206e6577206f776e657220697320746865207a65726f206160008201527f6464726573730000000000000000000000000000000000000000000000000000602082015250565b7f45524332303a20617070726f766520746f20746865207a65726f20616464726560008201527f7373000000000000000000000000000000000000000000000000000000000000602082015250565b7f45524332303a20696e73756666696369656e7420616c6c6f77616e6365000000600082015250565b7f45524332303a207472616e7366657220616d6f756e742065786365656473206260008201527f616c616e63650000000000000000000000000000000000000000000000000000602082015250565b7f4f776e61626c653a2063616c6c6572206973206e6f7420746865206f776e6572600082015250565b7f4e6f74207570746f2061207765656b2079657400000000000000000000000000600082015250565b7f45524332303a206275726e2066726f6d20746865207a65726f2061646472657360008201527f7300000000000000000000000000000000000000000000000000000000000000602082015250565b7f45524332303a207472616e736665722066726f6d20746865207a65726f20616460008201527f6472657373000000000000000000000000000000000000000000000000000000602082015250565b7f45524332303a20617070726f76652066726f6d20746865207a65726f2061646460008201527f7265737300000000000000000000000000000000000000000000000000000000602082015250565b7f45524332303a2064656372656173656420616c6c6f77616e63652062656c6f7760008201527f207a65726f000000000000000000000000000000000000000000000000000000602082015250565b7f45524332303a206d696e7420746f20746865207a65726f206164647265737300600082015250565b612ec3816129ce565b8114612ece57600080fd5b50565b612eda81612a0c565b8114612ee557600080fd5b5056fea264697066735822122040b112a802d82472a3c38576135b16b6ed4dcf1ec2cad3d4e68b8c40aab4706d64736f6c63430008040033",
  "linkReferences": {},
  "deployedLinkReferences": {}
}